# CLI - Ethereum Commands

<img align="right" height="65" src="https://github.com/meherett/swap/blob/master/docs/static/svg/ethereum.svg">

  - [HTLC Command](#htlc-command)
  - [Fund Command](#fund-command)
  - [Withdraw Command](#withdraw-command)
  - [Refund Command](#refund-command)
  - [Decode Command](#decode-command)
  - [Sign Command](#sign-command)
  - [Submit Command](#submit-command)

> $ swap `ethereum` command

```shell script
swap ethereum --help
```

<details>
  <summary>Output</summary><br/>

```shell script
Usage: swap ethereum [OPTIONS] COMMAND [ARGS]...

Options:
  -h, --help  Show this message and exit.

Commands:
  decode    Select Ethereum Transaction raw decoder.
  fund      Select Ethereum Fund transaction builder.
  htlc      Select Ethereum Hash Time Lock Contract (HTLC) builder.
  refund    Select Ethereum Refund transaction builder.
  sign      Select Ethereum Transaction raw signer.
  submit    Select Ethereum Transaction raw submitter.
  withdraw  Select Ethereum Withdraw transaction builder.
```
</details>

## HTLC Command

> $ swap ethereum `htlc` command

```shell script
swap ethereum htlc --help
```

<details>
  <summary>Output</summary><br/>

```shell script
Usage: swap ethereum htlc [OPTIONS]

Options:
  -ca, --transaction-hash TEXT  Set Ethereum HTLC contact address.  [default:
                                None]

  -n, --network TEXT            Set Ethereum network.  [default: mainnet]
  -i, --indent INTEGER          Set json indent.  [default: 4]
  -h, --help                    Show this message and exit.
```
</details>

> **Example** -> swap ethereum `htlc` command

**Contract Address** _(str)_ -> 0x67324d402ffc103d061dAfA9096ff639f0676378 **[required]**<br/>
**Network** _(str)_ -> testnet **[default: `mainnet`]**<br/>

> **Returns** _(dict)_ -> Ethereum Hash Time Lock Contract (HTLC) bytecode and contract address.

```shell script
swap ethereum htlc --contract-address 0x67324d402ffc103d061dAfA9096ff639f0676378 --network testnet
```

<details open>
  <summary>Output</summary><br/>

```json5
{
    "abi": [{"anonymous": false, "inputs": [{"indexed": true, "internalType": "bytes32", "name": "locked_contract_id", "type": "bytes32"}, {"indexed": false, "internalType": "bytes32", "name": "secret_hash", "type": "bytes32"}, {"indexed": true, "internalType": "address", "name": "recipient", "type": "address"}, {"indexed": true, "internalType": "address", "name": "sender", "type": "address"}, {"indexed": false, "internalType": "uint256", "name": "endtime", "type": "uint256"}, {"indexed": false, "internalType": "uint256", "name": "amount", "type": "uint256"}], "name": "log_fund", "type": "event"}, {"anonymous": false, "inputs": [{"indexed": true, "internalType": "bytes32", "name": "locked_contract_id", "type": "bytes32"}], "name": "log_refund", "type": "event"}, {"anonymous": false, "inputs": [{"indexed": true, "internalType": "bytes32", "name": "locked_contract_id", "type": "bytes32"}], "name": "log_withdraw", "type": "event"}, {"inputs": [{"internalType": "bytes32", "name": "_secret_hash", "type": "bytes32"}, {"internalType": "address payable", "name": "_recipient", "type": "address"}, {"internalType": "address payable", "name": "_sender", "type": "address"}, {"internalType": "uint256", "name": "_endtime", "type": "uint256"}], "name": "fund", "outputs": [{"internalType": "bytes32", "name": "locked_contract_id", "type": "bytes32"}], "stateMutability": "payable", "type": "function"}, {"inputs": [{"internalType": "bytes32", "name": "_locked_contract_id", "type": "bytes32"}], "name": "get_locked_contract", "outputs": [{"internalType": "bytes32", "name": "id", "type": "bytes32"}, {"internalType": "bytes32", "name": "secret_hash", "type": "bytes32"}, {"internalType": "address", "name": "recipient", "type": "address"}, {"internalType": "address", "name": "sender", "type": "address"}, {"internalType": "uint256", "name": "endtime", "type": "uint256"}, {"internalType": "uint256", "name": "amount", "type": "uint256"}, {"internalType": "bool", "name": "withdrawn", "type": "bool"}, {"internalType": "bool", "name": "refunded", "type": "bool"}, {"internalType": "string", "name": "preimage", "type": "string"}], "stateMutability": "view", "type": "function"}, {"inputs": [{"internalType": "bytes32", "name": "_locked_contract_id", "type": "bytes32"}], "name": "refund", "outputs": [{"internalType": "bool", "name": "", "type": "bool"}], "stateMutability": "nonpayable", "type": "function"}, {"inputs": [{"internalType": "bytes32", "name": "_locked_contract_id", "type": "bytes32"}, {"internalType": "string", "name": "_preimage", "type": "string"}], "name": "withdraw", "outputs": [{"internalType": "bool", "name": "", "type": "bool"}], "stateMutability": "nonpayable", "type": "function"}],
    "bytecode": "608060405234801561001057600080fd5b50611ae9806100206000396000f3fe60806040526004361061003f5760003560e01c806306a53665146100445780637249fbb614610081578063cfd4b66e146100be578063f4fd306214610103575b600080fd5b34801561005057600080fd5b5061006b60048036038101906100669190610f29565b610133565b60405161007891906112e1565b60405180910390f35b34801561008d57600080fd5b506100a860048036038101906100a39190610e74565b610449565b6040516100b591906112e1565b60405180910390f35b3480156100ca57600080fd5b506100e560048036038101906100e09190610e74565b61073d565b6040516100fa99989796959493929190611317565b60405180910390f35b61011d60048036038101906101189190610ec6565b6108e4565b60405161012a91906112fc565b60405180910390f35b60008261013f81610ca7565b61017e576040517f08c379a000000000000000000000000000000000000000000000000000000000815260040161017590611462565b60405180910390fd5b838360028160405160200161019391906112ca565b6040516020818303038152906040526040516101af91906112b3565b602060405180830381855afa1580156101cc573d6000803e3d6000fd5b5050506040513d601f19601f820116820180604052508101906101ef9190610e9d565b6000808481526020019081526020016000206000015414610245576040517f08c379a000000000000000000000000000000000000000000000000000000000815260040161023c90611422565b60405180910390fd5b853373ffffffffffffffffffffffffffffffffffffffff1660008083815260200190815260200160002060010160009054906101000a900473ffffffffffffffffffffffffffffffffffffffff1673ffffffffffffffffffffffffffffffffffffffff16146102e9576040517f08c379a00000000000000000000000000000000000000000000000000000000081526004016102e090611502565b60405180910390fd5b6000151560008083815260200190815260200160002060050160009054906101000a900460ff16151514610352576040517f08c379a0000000000000000000000000000000000000000000000000000000008152600401610349906114e2565b60405180910390fd5b6000806000898152602001908152602001600020905086816006019080519060200190610380929190610d15565b5060018160050160006101000a81548160ff0219169083151502179055508060010160009054906101000a900473ffffffffffffffffffffffffffffffffffffffff1673ffffffffffffffffffffffffffffffffffffffff166108fc82600401549081150290604051600060405180830381858888f1935050505015801561040c573d6000803e3d6000fd5b50877f504d590eb5fc388d52f9ec13027846f2a4be1de21e120f4f6cb81577631925b660405160405180910390a260019550505050505092915050565b60008161045581610ca7565b610494576040517f08c379a000000000000000000000000000000000000000000000000000000000815260040161048b90611462565b60405180910390fd5b823373ffffffffffffffffffffffffffffffffffffffff1660008083815260200190815260200160002060020160009054906101000a900473ffffffffffffffffffffffffffffffffffffffff1673ffffffffffffffffffffffffffffffffffffffff1614610538576040517f08c379a000000000000000000000000000000000000000000000000000000000815260040161052f90611542565b60405180910390fd5b6000151560008083815260200190815260200160002060050160019054906101000a900460ff161515146105a1576040517f08c379a0000000000000000000000000000000000000000000000000000000008152600401610598906114a2565b60405180910390fd5b6000151560008083815260200190815260200160002060050160009054906101000a900460ff1615151461060a576040517f08c379a000000000000000000000000000000000000000000000000000000000815260040161060190611402565b60405180910390fd5b42600080838152602001908152602001600020600301541115610662576040517f08c379a000000000000000000000000000000000000000000000000000000000815260040161065990611442565b60405180910390fd5b6000806000868152602001908152602001600020905060018160050160016101000a81548160ff0219169083151502179055508060020160009054906101000a900473ffffffffffffffffffffffffffffffffffffffff1673ffffffffffffffffffffffffffffffffffffffff166108fc82600401549081150290604051600060405180830381858888f19350505050158015610703573d6000803e3d6000fd5b50847ff9f621227215a273c53adae3204668db470019bad0903f243eefc5f7736fc95660405160405180910390a260019350505050919050565b6000806000806000806000806060600015156107588b610ca7565b1515141561079f576000806000806000806000808760001b97508660001b9650604051806020016040528060008152509850985098509850985098509850985098506108d7565b60008060008c815260200190815260200160002090508a81600001548260010160009054906101000a900473ffffffffffffffffffffffffffffffffffffffff168360020160009054906101000a900473ffffffffffffffffffffffffffffffffffffffff16846003015485600401548660050160009054906101000a900460ff168760050160019054906101000a900460ff16886006018080546108439061169b565b80601f016020809104026020016040519081016040528092919081815260200182805461086f9061169b565b80156108bc5780601f10610891576101008083540402835291602001916108bc565b820191906000526020600020905b81548152906001019060200180831161089f57829003601f168201915b50505050509050995099509950995099509950995099509950505b9193959799909294969850565b6000803411610928576040517f08c379a000000000000000000000000000000000000000000000000000000000815260040161091f90611522565b60405180910390fd5b8142811161096b576040517f08c379a0000000000000000000000000000000000000000000000000000000008152600401610962906113e2565b60405180910390fd5b8373ffffffffffffffffffffffffffffffffffffffff163373ffffffffffffffffffffffffffffffffffffffff16146109d9576040517f08c379a00000000000000000000000000000000000000000000000000000000081526004016109d0906114c2565b60405180910390fd5b600286863386346040516020016109f4959493929190611254565b604051602081830303815290604052604051610a1091906112b3565b602060405180830381855afa158015610a2d573d6000803e3d6000fd5b5050506040513d601f19601f82011682018060405250810190610a509190610e9d565b9150610a5b82610ca7565b15610a9b576040517f08c379a0000000000000000000000000000000000000000000000000000000008152600401610a9290611482565b60405180910390fd5b6040518061010001604052808781526020018673ffffffffffffffffffffffffffffffffffffffff1681526020018573ffffffffffffffffffffffffffffffffffffffff168152602001848152602001348152602001600015158152602001600015158152602001604051806020016040528060008152508152506000808481526020019081526020016000206000820151816000015560208201518160010160006101000a81548173ffffffffffffffffffffffffffffffffffffffff021916908373ffffffffffffffffffffffffffffffffffffffff16021790555060408201518160020160006101000a81548173ffffffffffffffffffffffffffffffffffffffff021916908373ffffffffffffffffffffffffffffffffffffffff160217905550606082015181600301556080820151816004015560a08201518160050160006101000a81548160ff02191690831515021790555060c08201518160050160016101000a81548160ff02191690831515021790555060e0820151816006019080519060200190610c30929190610d15565b509050503373ffffffffffffffffffffffffffffffffffffffff168573ffffffffffffffffffffffffffffffffffffffff16837f4b32cdea5308293292c6bd3fcb8f93752a664ea704010bfcdc88effd651f2f7a898734604051610c96939291906113ab565b60405180910390a450949350505050565b60008073ffffffffffffffffffffffffffffffffffffffff1660008084815260200190815260200160002060020160009054906101000a900473ffffffffffffffffffffffffffffffffffffffff1673ffffffffffffffffffffffffffffffffffffffff1614159050919050565b828054610d219061169b565b90600052602060002090601f016020900481019282610d435760008555610d8a565b82601f10610d5c57805160ff1916838001178555610d8a565b82800160010185558215610d8a579182015b82811115610d89578251825591602001919060010190610d6e565b5b509050610d979190610d9b565b5090565b5b80821115610db4576000816000905550600101610d9c565b5090565b6000610dcb610dc684611587565b611562565b905082815260208101848484011115610de357600080fd5b610dee848285611659565b509392505050565b600081359050610e0581611a6e565b92915050565b600081359050610e1a81611a85565b92915050565b600081519050610e2f81611a85565b92915050565b600082601f830112610e4657600080fd5b8135610e56848260208601610db8565b91505092915050565b600081359050610e6e81611a9c565b92915050565b600060208284031215610e8657600080fd5b6000610e9484828501610e0b565b91505092915050565b600060208284031215610eaf57600080fd5b6000610ebd84828501610e20565b91505092915050565b60008060008060808587031215610edc57600080fd5b6000610eea87828801610e0b565b9450506020610efb87828801610df6565b9350506040610f0c87828801610df6565b9250506060610f1d87828801610e5f565b91505092959194509250565b60008060408385031215610f3c57600080fd5b6000610f4a85828601610e0b565b925050602083013567ffffffffffffffff811115610f6757600080fd5b610f7385828601610e35565b9150509250929050565b610f8e610f8982611607565b611710565b82525050565b610f9d816115f5565b82525050565b610fb4610faf826115f5565b6116fe565b82525050565b610fc381611619565b82525050565b610fd281611625565b82525050565b610fe9610fe482611625565b611722565b82525050565b6000610ffa826115b8565b61100481856115ce565b9350611014818560208601611668565b80840191505092915050565b600061102b826115c3565b61103581856115d9565b9350611045818560208601611668565b61104e816117a6565b840191505092915050565b6000611064826115c3565b61106e81856115ea565b935061107e818560208601611668565b80840191505092915050565b60006110976022836115d9565b91506110a2826117c4565b604082019050919050565b60006110ba601d836115d9565b91506110c582611813565b602082019050919050565b60006110dd601f836115d9565b91506110e88261183c565b602082019050919050565b60006111006022836115d9565b915061110b82611865565b604082019050919050565b60006111236021836115d9565b915061112e826118b4565b604082019050919050565b60006111466023836115d9565b915061115182611903565b604082019050919050565b6000611169601c836115d9565b915061117482611952565b602082019050919050565b600061118c602b836115d9565b91506111978261197b565b604082019050919050565b60006111af601f836115d9565b91506111ba826119ca565b602082019050919050565b60006111d2601b836115d9565b91506111dd826119f3565b602082019050919050565b60006111f56015836115d9565b915061120082611a1c565b602082019050919050565b60006112186016836115d9565b915061122382611a45565b602082019050919050565b6112378161164f565b82525050565b61124e6112498261164f565b61173e565b82525050565b60006112608288610fd8565b6020820191506112708287610f7d565b6014820191506112808286610fa3565b601482019150611290828561123d565b6020820191506112a0828461123d565b6020820191508190509695505050505050565b60006112bf8284610fef565b915081905092915050565b60006112d68284611059565b915081905092915050565b60006020820190506112f66000830184610fba565b92915050565b60006020820190506113116000830184610fc9565b92915050565b60006101208201905061132d600083018c610fc9565b61133a602083018b610fc9565b611347604083018a610f94565b6113546060830189610f94565b611361608083018861122e565b61136e60a083018761122e565b61137b60c0830186610fba565b61138860e0830185610fba565b81810361010083015261139b8184611020565b90509a9950505050505050505050565b60006060820190506113c06000830186610fc9565b6113cd602083018561122e565b6113da604083018461122e565b949350505050565b600060208201905081810360008301526113fb8161108a565b9050919050565b6000602082019050818103600083015261141b816110ad565b9050919050565b6000602082019050818103600083015261143b816110d0565b9050919050565b6000602082019050818103600083015261145b816110f3565b9050919050565b6000602082019050818103600083015261147b81611116565b9050919050565b6000602082019050818103600083015261149b81611139565b9050919050565b600060208201905081810360008301526114bb8161115c565b9050919050565b600060208201905081810360008301526114db8161117f565b9050919050565b600060208201905081810360008301526114fb816111a2565b9050919050565b6000602082019050818103600083015261151b816111c5565b9050919050565b6000602082019050818103600083015261153b816111e8565b9050919050565b6000602082019050818103600083015261155b8161120b565b9050919050565b600061156c61157d565b905061157882826116cd565b919050565b6000604051905090565b600067ffffffffffffffff8211156115a2576115a1611777565b5b6115ab826117a6565b9050602081019050919050565b600081519050919050565b600081519050919050565b600081905092915050565b600082825260208201905092915050565b600081905092915050565b60006116008261162f565b9050919050565b60006116128261162f565b9050919050565b60008115159050919050565b6000819050919050565b600073ffffffffffffffffffffffffffffffffffffffff82169050919050565b6000819050919050565b82818337600083830152505050565b60005b8381101561168657808201518184015260208101905061166b565b83811115611695576000848401525b50505050565b600060028204905060018216806116b357607f821691505b602082108114156116c7576116c6611748565b5b50919050565b6116d6826117a6565b810181811067ffffffffffffffff821117156116f5576116f4611777565b5b80604052505050565b60006117098261172c565b9050919050565b600061171b8261172c565b9050919050565b6000819050919050565b6000611737826117b7565b9050919050565b6000819050919050565b7f4e487b7100000000000000000000000000000000000000000000000000000000600052602260045260246000fd5b7f4e487b7100000000000000000000000000000000000000000000000000000000600052604160045260246000fd5b6000601f19601f8301169050919050565b60008160601b9050919050565b7f656e6474696d652074696d65206d75737420626520696e20746865206675747560008201527f7265000000000000000000000000000000000000000000000000000000000000602082015250565b7f726566756e6461626c653a20616c72656164792077697468647261776e000000600082015250565b7f7365637265745f68617368206861736820646f6573206e6f74206d6174636800600082015250565b7f726566756e6461626c653a20656e6474696d65206e6f7420796574207061737360008201527f6564000000000000000000000000000000000000000000000000000000000000602082015250565b7f6c6f636b65645f636f6e74726163745f696420646f6573206e6f74206578697360008201527f7400000000000000000000000000000000000000000000000000000000000000602082015250565b7f74686973206c6f636b656420636f6e747261637420616c72656164792065786960008201527f7374730000000000000000000000000000000000000000000000000000000000602082015250565b7f726566756e6461626c653a20616c726561647920726566756e64656400000000600082015250565b7f6d73672e73656e646572206d7573742062652073616d6520776974682073656e60008201527f6465722061646472657373000000000000000000000000000000000000000000602082015250565b7f776974686472617761626c653a20616c72656164792077697468647261776e00600082015250565b7f776974686472617761626c653a206e6f7420726563697069656e740000000000600082015250565b7f6d73672e76616c7565206d757374206265203e20300000000000000000000000600082015250565b7f726566756e6461626c653a206e6f742073656e64657200000000000000000000600082015250565b611a7781611607565b8114611a8257600080fd5b50565b611a8e81611625565b8114611a9957600080fd5b50565b611aa58161164f565b8114611ab057600080fd5b5056fea264697066735822122000c70a3a2b0944aeb7f6e7c8e4a7d2f3cd9491937430630d94388095769c30fe64736f6c63430008030033",
    "contract_address": "0x67324d402ffc103d061dAfA9096ff639f0676378"
}
```
</details>

## Fund Command

> $ swap ethereum `fund` command

```shell script
swap ethereum fund --help
```

<details>
  <summary>Output</summary><br/>

```shell script
Usage: swap ethereum fund [OPTIONS]

Options:
  -sh, --secret-hash TEXT        Set secret 256 hash.  [required]
  -ra, --recipient-address TEXT  Set Ethereum recipient address.  [required]
  -sa, --sender-address TEXT     Set Ethereum sender address.  [required]
  -e, --endtime INTEGER          Set Expiration block time (Seconds).
                                 [required]

  -am, --amount FLOAT            Set Ethereum fund amount.  [required]
  -u, --unit TEXT                Set Ethereum fund amount unit.  [default:
                                 Wei]

  -ca, --transaction-hash TEXT   Set Ethereum HTLC contact address.  [default:
                                 None]

  -n, --network TEXT             Set Ethereum network.  [default: mainnet]
  -h, --help                     Show this message and exit.
```
</details>

> **Example** -> swap ethereum `fund` command

**Secret Hash** _(str)_ -> 3a26da82ead15a80533a02696656b14b5dbfd84eb14790f2e1be5e9e45820eeb **[required]**<br/>
**Recipient Address** _(str)_ -> 0x1954C47a5D75bdDA53578CEe5D549bf84b8c6B94 **[required]**<br/>
**Sender Address** _(str)_ -> 0x69e04fe16c9A6A83076B3c2dc4b4Bc21b5d9A20C **[required]**<br/>
**Endtime** _(int)_ -> 36000 **[required]**<br/>
**Amount** _(int, float)_ -> 0.1 **[required]**<br/>
**Unit** _(str)_ -> Ether **[default: `Wei`]**<br/>
**Contract Address** _(str)_ -> 0x67324d402ffc103d061dAfA9096ff639f0676378 **[required]**<br/>
**Network** _(str)_ -> testnet **[default: `mainnet`]**<br/>

> **Returns** _(str)_ -> Ethereum unsigned fund transaction raw.

```shell script
swap ethereum fund --secret-hash 3a26da82ead15a80533a02696656b14b5dbfd84eb14790f2e1be5e9e45820eeb --recipient-address 0x1954C47a5D75bdDA53578CEe5D549bf84b8c6B94 --sender-address 0x69e04fe16c9A6A83076B3c2dc4b4Bc21b5d9A20C --endtime 3600 --amount 0.1 --unit Ether --transaction-hash 0x67324d402ffc103d061dAfA9096ff639f0676378 --network testnet
```

<details open>
  <summary>Output</summary><br/>

```shell script
eyJmZWUiOiAxMzg0NDgsICJ0cmFuc2FjdGlvbiI6IHsiY2hhaW5JZCI6IDEzMzcsICJmcm9tIjogIjB4NjllMDRmZTE2YzlBNkE4MzA3NkIzYzJkYzRiNEJjMjFiNWQ5QTIwQyIsICJ2YWx1ZSI6IDEwMDAwMDAwMDAwMDAwMDAwMCwgIm5vbmNlIjogMTIsICJnYXMiOiAxMzg0NDgsICJnYXNQcmljZSI6IDIwMDAwMDAwMDAwLCAidG8iOiAiMHg2NzMyNGQ0MDJmZmMxMDNkMDYxZEFmQTkwOTZmZjYzOWYwNjc2Mzc4IiwgImRhdGEiOiAiMHhmNGZkMzA2MjNhMjZkYTgyZWFkMTVhODA1MzNhMDI2OTY2NTZiMTRiNWRiZmQ4NGViMTQ3OTBmMmUxYmU1ZTllNDU4MjBlZWIwMDAwMDAwMDAwMDAwMDAwMDAwMDAwMDAxOTU0YzQ3YTVkNzViZGRhNTM1NzhjZWU1ZDU0OWJmODRiOGM2Yjk0MDAwMDAwMDAwMDAwMDAwMDAwMDAwMDAwNjllMDRmZTE2YzlhNmE4MzA3NmIzYzJkYzRiNGJjMjFiNWQ5YTIwYzAwMDAwMDAwMDAwMDAwMDAwMDAwMDAwMDAwMDAwMDAwMDAwMDAwMDAwMDAwMDAwMDAwMDAwMDAwNjBkZjZiMDEifSwgInNpZ25hdHVyZSI6IG51bGwsICJuZXR3b3JrIjogInRlc3RuZXQiLCAidHlwZSI6ICJldGhlcmV1bV9mdW5kX3Vuc2lnbmVkIn0=
```
</details>

## Withdraw Command

> $ swap ethereum `withdraw` command

```shell script
swap ethereum withdraw --help
```

<details>
  <summary>Output</summary><br/>

```shell script
Usage: swap ethereum withdraw [OPTIONS]

Options:
  -th, --transaction-hash TEXT  Set Ethereum funded transaction hash/id.
                                [required]

  -a, --address TEXT            Set Ethereum recipient address.  [required]
  -sk, --secret-key TEXT        Set secret password/passphrase.  [required]
  -ca, --contract-address TEXT  Set Ethereum HTLC contact address.  [default:
                                None]

  -n, --network TEXT            Set Ethereum network.  [default: mainnet]
  -h, --help                    Show this message and exit.
```
</details>

> **Example** -> swap ethereum `withdraw` command

**Transaction Hash** _(str)_ -> 0x4c664e09f140bb6d0ead0998429df614f5e25a2e0db953c2180be97d24cdd478 **[required]**<br/>
**Recipient Address** _(str)_ -> 0x1954C47a5D75bdDA53578CEe5D549bf84b8c6B94 **[required]**<br/>
**Secret Key** _(str)_ -> Hello Meheret! **[required]**<br/>
**Contract Address** _(str)_ -> 0x67324d402ffc103d061dAfA9096ff639f0676378 **[required]**<br/>
**Network** _(str)_ -> testnet **[default: `mainnet`]**<br/>

> **Returns** _(str)_ -> Ethereum unsigned withdraw transaction raw.

```shell script
swap ethereum withdraw --transaction-hash 0x4c664e09f140bb6d0ead0998429df614f5e25a2e0db953c2180be97d24cdd478 --address 0x1954C47a5D75bdDA53578CEe5D549bf84b8c6B94 --secret-key "Hello Meheret!" --contract-address 0x67324d402ffc103d061dAfA9096ff639f0676378 --network testnet
```

<details open>
  <summary>Output</summary><br/>

```shell script
eyJmZWUiOiA4MjY4OSwgInRyYW5zYWN0aW9uIjogeyJjaGFpbklkIjogMTMzNywgImZyb20iOiAiMHgxOTU0QzQ3YTVENzViZERBNTM1NzhDRWU1RDU0OWJmODRiOGM2Qjk0IiwgInZhbHVlIjogMCwgIm5vbmNlIjogMSwgImdhcyI6IDgyNjg5LCAiZ2FzUHJpY2UiOiAyMDAwMDAwMDAwMCwgInRvIjogIjB4NjczMjRkNDAyZmZjMTAzZDA2MWRBZkE5MDk2ZmY2MzlmMDY3NjM3OCIsICJkYXRhIjogIjB4MDZhNTM2NjVjN2FmMDMwZDFkODMzYTk5NWVjMDU1MTUyYjU1N2M2NjcyNTBmYWViMzc0ZGNmMjk5MTZlNzE0MmU0MjFlNzA2MDAwMDAwMDAwMDAwMDAwMDAwMDAwMDAwMDAwMDAwMDAwMDAwMDAwMDAwMDAwMDAwMDAwMDAwMDAwMDAwMDA0MDAwMDAwMDAwMDAwMDAwMDAwMDAwMDAwMDAwMDAwMDAwMDAwMDAwMDAwMDAwMDAwMDAwMDAwMDAwMDAwMDAwMGU0ODY1NmM2YzZmMjA0ZDY1Njg2NTcyNjU3NDIxMDAwMDAwMDAwMDAwMDAwMDAwMDAwMDAwMDAwMDAwMDAwMDAwIn0sICJzaWduYXR1cmUiOiBudWxsLCAibmV0d29yayI6ICJ0ZXN0bmV0IiwgInR5cGUiOiAiZXRoZXJldW1fd2l0aGRyYXdfdW5zaWduZWQifQ==
```
</details>

## Refund Command

> $ swap ethereum `refund` command

```shell script
swap ethereum refund --help
```

<details>
  <summary>Output</summary><br/>

```shell script
Usage: swap ethereum refund [OPTIONS]

Options:
  -th, --transaction-hash TEXT  Set Ethereum funded transaction hash/id.
                                [required]

  -a, --address TEXT            Set Ethereum sender address.  [required]
  -ca, --contract-address TEXT  Set Ethereum HTLC contact address.  [default:
                                None]

  -n, --network TEXT            Set Ethereum network.  [default: mainnet]
  -h, --help                    Show this message and exit.
```
</details>

> **Example** -> swap ethereum `refund` command

**Transaction Hash** _(str)_ -> 0x4c664e09f140bb6d0ead0998429df614f5e25a2e0db953c2180be97d24cdd478 **[required]**<br/>
**Sender Address** _(str)_ -> 0x69e04fe16c9A6A83076B3c2dc4b4Bc21b5d9A20C **[required]**<br/>
**Contract Address** _(str)_ -> 0x67324d402ffc103d061dAfA9096ff639f0676378 **[required]**<br/>
**Network** _(str)_ -> testnet **[default: `mainnet`]**<br/>

> **Returns** _(str)_ -> Ethereum unsigned refund transaction raw.

```shell script
swap ethereum refund --transaction-hash 0x4c664e09f140bb6d0ead0998429df614f5e25a2e0db953c2180be97d24cdd478 --address 0x69e04fe16c9A6A83076B3c2dc4b4Bc21b5d9A20C --contract-address 0x67324d402ffc103d061dAfA9096ff639f0676378 --network testnet
```

<details open>
  <summary>Output</summary><br/>

```shell script
eyJmZWUiOiA1OTIzMiwgInRyYW5zYWN0aW9uIjogeyJjaGFpbklkIjogMTMzNywgImZyb20iOiAiMHg2OWUwNGZlMTZjOUE2QTgzMDc2QjNjMmRjNGI0QmMyMWI1ZDlBMjBDIiwgInZhbHVlIjogMCwgIm5vbmNlIjogMywgImdhcyI6IDU5MjMyLCAiZ2FzUHJpY2UiOiAyMDAwMDAwMDAwMCwgInRvIjogIjB4ZWFFYUM4MWRhNUUzODZFOENhNERlMWU2NGQ0MGExMEU0NjhBNWI0MCIsICJkYXRhIjogIjB4NzI0OWZiYjZmZDNkMzgzNmRhMjk0OTYzZTY3MDZiNzkzMzA3YzZiNmQ4NDI3NWMxNTc2NDM5MzQxNTUzMTFhZGNhMWE2NTE1In0sICJzaWduYXR1cmUiOiBudWxsLCAibmV0d29yayI6ICJ0ZXN0bmV0IiwgInR5cGUiOiAiZXRoZXJldW1fcmVmdW5kX3Vuc2lnbmVkIn0=
```
</details>

## Decode Command

> $ swap ethereum `decode` command

```shell script
swap ethereum decode --help
```

<details>
  <summary>Output</summary><br/>

```shell script
Usage: swap ethereum decode [OPTIONS]

Options:
  -tr, --transaction-raw TEXT  Set Ethereum transaction raw.  [required]
  -i, --indent INTEGER         Set json indent.  [default: 4]
  -h, --help                   Show this message and exit.
```
</details>

> **Example** -> swap ethereum `decode` command

**Transaction Raw** _(str)_ -> eyJmZWUiOiA1OTIzMiwgInRyYW5zYWN0aW9uIjogeyJjaGFpbklkIjogMTMzNy... **[required]**<br/>

> **Returns** _(str)_ -> Ethereum transaction json.

```shell script
swap ethereum decode --transaction-raw eyJmZWUiOiA1OTIzMiwgInRyYW5zYWN0aW9uIjogeyJjaGFpbklkIjogMTMzNywgImZyb20iOiAiMHg2OWUwNGZlMTZjOUE2QTgzMDc2QjNjMmRjNGI0QmMyMWI1ZDlBMjBDIiwgInZhbHVlIjogMCwgIm5vbmNlIjogMywgImdhcyI6IDU5MjMyLCAiZ2FzUHJpY2UiOiAyMDAwMDAwMDAwMCwgInRvIjogIjB4ZWFFYUM4MWRhNUUzODZFOENhNERlMWU2NGQ0MGExMEU0NjhBNWI0MCIsICJkYXRhIjogIjB4NzI0OWZiYjZmZDNkMzgzNmRhMjk0OTYzZTY3MDZiNzkzMzA3YzZiNmQ4NDI3NWMxNTc2NDM5MzQxNTUzMTFhZGNhMWE2NTE1In0sICJzaWduYXR1cmUiOiB7Imhhc2giOiAiMHgyZDAyNmQ0YjMyMWJlMjlkZjgzYWQ1NDg4OGQ3MmFmNjE2NWJjMjUzOTNlZWFhOTY2N2ZmM2RhZGUzZTVmYzJjIiwgInJhd1RyYW5zYWN0aW9uIjogIjB4Zjg4YTAzODUwNGE4MTdjODAwODJlNzYwOTRlYWVhYzgxZGE1ZTM4NmU4Y2E0ZGUxZTY0ZDQwYTEwZTQ2OGE1YjQwODBhNDcyNDlmYmI2ZmQzZDM4MzZkYTI5NDk2M2U2NzA2Yjc5MzMwN2M2YjZkODQyNzVjMTU3NjQzOTM0MTU1MzExYWRjYTFhNjUxNTgyMGE5NmEwZjZhYjNlNGRhYzY3MGY5YzkwZDA4ZWYyNDhhNmU1NWE0NWVkM2FiNTc0M2JiN2JhODQxZTJiNjRmZDcyOTRlZWEwNmM4NmE4OGQ4ZWRmYWEwYmUyYmM0NDg5YmUyMDU1ZjY3OGU5ZTA4ZjViYmE1NDM5N2Q1Nzg3OWExZDM0MDk1ZCIsICJyIjogMTExNTcxNTIxNjAxOTA2MTQwNjQxOTQyODA5ODQ3MjMyMzcyMTExNDE2MjMxOTc2NTQ3Mjg0NzU3MzEyNjU4ODc3OTE2MzE3MzkwMDYyLCAicyI6IDQ5MDg3NzA4NDYzNDU4MTY5ODc3NTIwNjI4NDU5NzM2NDY2NjUwODM5ODEzNzA3Mzk3MzU3NDk0NTAwMTEzNTk3MDY0MDE0OTg5NjYxLCAidiI6IDI3MTB9LCAibmV0d29yayI6ICJ0ZXN0bmV0IiwgInR5cGUiOiAiZXRoZXJldW1fcmVmdW5kX3NpZ25lZCJ9
```

<details open>
  <summary>Output</summary><br/>

```json5
{
    "fee": 59232,
    "transaction": {
        "chainId": 1337,
        "from": "0x69e04fe16c9A6A83076B3c2dc4b4Bc21b5d9A20C",
        "value": 0,
        "nonce": 3,
        "gas": 59232,
        "gasPrice": 20000000000,
        "to": "0xeaEaC81da5E386E8Ca4De1e64d40a10E468A5b40",
        "data": "0x7249fbb6fd3d3836da294963e6706b793307c6b6d84275c157643934155311adca1a6515"
    },
    "signatures": {
        "hash": "0x2d026d4b321be29df83ad54888d72af6165bc25393eeaa9667ff3dade3e5fc2c",
        "rawTransaction": "0xf88a038504a817c80082e76094eaeac81da5e386e8ca4de1e64d40a10e468a5b4080a47249fbb6fd3d3836da294963e6706b793307c6b6d84275c157643934155311adca1a6515820a96a0f6ab3e4dac670f9c90d08ef248a6e55a45ed3ab5743bb7ba841e2b64fd7294eea06c86a88d8edfaa0be2bc4489be2055f678e9e08f5bba54397d57879a1d34095d",
        "r": 111571521601906140641942809847232372111416231976547284757312658877916317390062,
        "s": 49087708463458169877520628459736466650839813707397357494500113597064014989661,
        "v": 2710
    },
    "network": "testnet",
    "type": "ethereum_refund_signed"
}

```
</details>

## Sign Command

> $ swap ethereum `sign` command

```shell script
swap ethereum sign --help
```

<details>
  <summary>Output</summary><br/>

```shell script
Usage: swap ethereum sign [OPTIONS]

Options:
  -xpk, --xprivate-key TEXT    Set Ethereum root xprivate key.  [required]
  -tr, --transaction-raw TEXT  Set Ethereum unsigned transaction raw.
                               [required]

  -ac, --account INTEGER       Set Ethereum derivation from account.
                               [default: 0]

  -ch, --change BOOLEAN        Set Ethereum derivation from change.  [default:
                               False]

  -ad, --address INTEGER       Set Ethereum derivation from address.
                               [default: 0]

  -p, --path TEXT              Set Ethereum derivation from path.  [default:
                               None]

  -h, --help                   Show this message and exit.
```
</details>

> **Example** -> swap ethereum `sign` command

**Root XPrivate Key** _(str)_ -> xprv9s21ZrQH143K3Y3pdbkbjreZQ9RVmqTLhRgf86uZyCJk2ou36YdUJt5frjwihGWmV1fQEDioiGZXWXUbHLy3kQf5xmhvhp8dZ2tfn6tgGUj **[required]**<br/>
**Unsigned Transaction Raw** _(str)_ -> eyJmZWUiOiA1OTIzMiwgInRyYW5zYWN0aW9uIjogeyJjaGFpbklkIjogMTMzNy... **[required]**<br/>

> **Returns** _(str)_ -> Ethereum signed transaction raw.

```shell script
swap ethereum sign --xprivate-key xprv9s21ZrQH143K3Y3pdbkbjreZQ9RVmqTLhRgf86uZyCJk2ou36YdUJt5frjwihGWmV1fQEDioiGZXWXUbHLy3kQf5xmhvhp8dZ2tfn6tgGUj --transaction-raw eyJmZWUiOiA1OTIzMiwgInRyYW5zYWN0aW9uIjogeyJjaGFpbklkIjogMTMzNywgImZyb20iOiAiMHg2OWUwNGZlMTZjOUE2QTgzMDc2QjNjMmRjNGI0QmMyMWI1ZDlBMjBDIiwgInZhbHVlIjogMCwgIm5vbmNlIjogMywgImdhcyI6IDU5MjMyLCAiZ2FzUHJpY2UiOiAyMDAwMDAwMDAwMCwgInRvIjogIjB4ZWFFYUM4MWRhNUUzODZFOENhNERlMWU2NGQ0MGExMEU0NjhBNWI0MCIsICJkYXRhIjogIjB4NzI0OWZiYjZmZDNkMzgzNmRhMjk0OTYzZTY3MDZiNzkzMzA3YzZiNmQ4NDI3NWMxNTc2NDM5MzQxNTUzMTFhZGNhMWE2NTE1In0sICJzaWduYXR1cmUiOiBudWxsLCAibmV0d29yayI6ICJ0ZXN0bmV0IiwgInR5cGUiOiAiZXRoZXJldW1fcmVmdW5kX3Vuc2lnbmVkIn0
```

<details open>
  <summary>Output</summary><br/>

```shell script
eyJmZWUiOiA1OTIzMiwgInRyYW5zYWN0aW9uIjogeyJjaGFpbklkIjogMTMzNywgImZyb20iOiAiMHg2OWUwNGZlMTZjOUE2QTgzMDc2QjNjMmRjNGI0QmMyMWI1ZDlBMjBDIiwgInZhbHVlIjogMCwgIm5vbmNlIjogMywgImdhcyI6IDU5MjMyLCAiZ2FzUHJpY2UiOiAyMDAwMDAwMDAwMCwgInRvIjogIjB4ZWFFYUM4MWRhNUUzODZFOENhNERlMWU2NGQ0MGExMEU0NjhBNWI0MCIsICJkYXRhIjogIjB4NzI0OWZiYjZmZDNkMzgzNmRhMjk0OTYzZTY3MDZiNzkzMzA3YzZiNmQ4NDI3NWMxNTc2NDM5MzQxNTUzMTFhZGNhMWE2NTE1In0sICJzaWduYXR1cmUiOiB7Imhhc2giOiAiMHgyZDAyNmQ0YjMyMWJlMjlkZjgzYWQ1NDg4OGQ3MmFmNjE2NWJjMjUzOTNlZWFhOTY2N2ZmM2RhZGUzZTVmYzJjIiwgInJhd1RyYW5zYWN0aW9uIjogIjB4Zjg4YTAzODUwNGE4MTdjODAwODJlNzYwOTRlYWVhYzgxZGE1ZTM4NmU4Y2E0ZGUxZTY0ZDQwYTEwZTQ2OGE1YjQwODBhNDcyNDlmYmI2ZmQzZDM4MzZkYTI5NDk2M2U2NzA2Yjc5MzMwN2M2YjZkODQyNzVjMTU3NjQzOTM0MTU1MzExYWRjYTFhNjUxNTgyMGE5NmEwZjZhYjNlNGRhYzY3MGY5YzkwZDA4ZWYyNDhhNmU1NWE0NWVkM2FiNTc0M2JiN2JhODQxZTJiNjRmZDcyOTRlZWEwNmM4NmE4OGQ4ZWRmYWEwYmUyYmM0NDg5YmUyMDU1ZjY3OGU5ZTA4ZjViYmE1NDM5N2Q1Nzg3OWExZDM0MDk1ZCIsICJyIjogMTExNTcxNTIxNjAxOTA2MTQwNjQxOTQyODA5ODQ3MjMyMzcyMTExNDE2MjMxOTc2NTQ3Mjg0NzU3MzEyNjU4ODc3OTE2MzE3MzkwMDYyLCAicyI6IDQ5MDg3NzA4NDYzNDU4MTY5ODc3NTIwNjI4NDU5NzM2NDY2NjUwODM5ODEzNzA3Mzk3MzU3NDk0NTAwMTEzNTk3MDY0MDE0OTg5NjYxLCAidiI6IDI3MTB9LCAibmV0d29yayI6ICJ0ZXN0bmV0IiwgInR5cGUiOiAiZXRoZXJldW1fcmVmdW5kX3NpZ25lZCJ9
```
</details>

## Submit Command

> $ swap ethereum `submit` command

```shell script
swap ethereum submit --help
```

<details>
  <summary>Output</summary><br/>

```shell script
Usage: swap ethereum submit [OPTIONS]

Options:
  -tr, --transaction-raw TEXT  Set signed Ethereum transaction raw.
                               [required]

  -h, --help                   Show this message and exit.
```
</details>

> **Example** -> swap ethereum `submit` command

**Signed Transaction Raw** _(str)_ -> eyJmZWUiOiA1OTIzMiwgInRyYW5zYWN0aW9uIjogeyJjaGFpbklkIjogMTMzNy... **[required]**<br/>

> **Returns** _(str)_ -> Ethereum blockchain transaction id.

```shell script
swap ethereum submit --transaction-raw eyJmZWUiOiA1OTIzMiwgInRyYW5zYWN0aW9uIjogeyJjaGFpbklkIjogMTMzNywgImZyb20iOiAiMHg2OWUwNGZlMTZjOUE2QTgzMDc2QjNjMmRjNGI0QmMyMWI1ZDlBMjBDIiwgInZhbHVlIjogMCwgIm5vbmNlIjogMywgImdhcyI6IDU5MjMyLCAiZ2FzUHJpY2UiOiAyMDAwMDAwMDAwMCwgInRvIjogIjB4ZWFFYUM4MWRhNUUzODZFOENhNERlMWU2NGQ0MGExMEU0NjhBNWI0MCIsICJkYXRhIjogIjB4NzI0OWZiYjZmZDNkMzgzNmRhMjk0OTYzZTY3MDZiNzkzMzA3YzZiNmQ4NDI3NWMxNTc2NDM5MzQxNTUzMTFhZGNhMWE2NTE1In0sICJzaWduYXR1cmUiOiB7Imhhc2giOiAiMHgyZDAyNmQ0YjMyMWJlMjlkZjgzYWQ1NDg4OGQ3MmFmNjE2NWJjMjUzOTNlZWFhOTY2N2ZmM2RhZGUzZTVmYzJjIiwgInJhd1RyYW5zYWN0aW9uIjogIjB4Zjg4YTAzODUwNGE4MTdjODAwODJlNzYwOTRlYWVhYzgxZGE1ZTM4NmU4Y2E0ZGUxZTY0ZDQwYTEwZTQ2OGE1YjQwODBhNDcyNDlmYmI2ZmQzZDM4MzZkYTI5NDk2M2U2NzA2Yjc5MzMwN2M2YjZkODQyNzVjMTU3NjQzOTM0MTU1MzExYWRjYTFhNjUxNTgyMGE5NmEwZjZhYjNlNGRhYzY3MGY5YzkwZDA4ZWYyNDhhNmU1NWE0NWVkM2FiNTc0M2JiN2JhODQxZTJiNjRmZDcyOTRlZWEwNmM4NmE4OGQ4ZWRmYWEwYmUyYmM0NDg5YmUyMDU1ZjY3OGU5ZTA4ZjViYmE1NDM5N2Q1Nzg3OWExZDM0MDk1ZCIsICJyIjogMTExNTcxNTIxNjAxOTA2MTQwNjQxOTQyODA5ODQ3MjMyMzcyMTExNDE2MjMxOTc2NTQ3Mjg0NzU3MzEyNjU4ODc3OTE2MzE3MzkwMDYyLCAicyI6IDQ5MDg3NzA4NDYzNDU4MTY5ODc3NTIwNjI4NDU5NzM2NDY2NjUwODM5ODEzNzA3Mzk3MzU3NDk0NTAwMTEzNTk3MDY0MDE0OTg5NjYxLCAidiI6IDI3MTB9LCAibmV0d29yayI6ICJ0ZXN0bmV0IiwgInR5cGUiOiAiZXRoZXJldW1fcmVmdW5kX3NpZ25lZCJ9
```

<details open>
  <summary>Output</summary><br/>

```shell script
2d026d4b321be29df83ad54888d72af6165bc25393eeaa9667ff3dade3e5fc2c
```
</details>
