# CLI - XinFin Commands

<img align="right" height="65" src="https://github.com/meherett/swap/blob/master/docs/static/svg/xinfin.svg">

  - [HTLC Command](#htlc-command)
  - [Fund Command](#fund-command)
  - [Withdraw Command](#withdraw-command)
  - [Refund Command](#refund-command)
  - [Decode Command](#decode-command)
  - [Sign Command](#sign-command)
  - [Submit Command](#submit-command)

> $ swap `xinfin` command

```shell script
swap xinfin --help
```

<details>
  <summary>Output</summary><br/>

```shell script
Usage: swap xinfin [OPTIONS] COMMAND [ARGS]...

Options:
  -h, --help  Show this message and exit.

Commands:
  decode    Select XinFin Transaction raw decoder.
  fund      Select XinFin Fund transaction builder.
  htlc      Select XinFin Hash Time Lock Contract (HTLC) builder.
  refund    Select XinFin Refund transaction builder.
  sign      Select XinFin Transaction raw signer.
  submit    Select XinFin Transaction raw submitter.
  withdraw  Select XinFin Withdraw transaction builder.
```
</details>

## HTLC Command

> $ swap xinfin `htlc` command

```shell script
swap xinfin htlc --help
```

<details>
  <summary>Output</summary><br/>

```shell script
Usage: swap xinfin htlc [OPTIONS]

Options:
  -ca, --transaction-hash TEXT  Set XinFin HTLC contact address.  [default:
                                None]

  -n, --network TEXT            Set XinFin network.  [default: mainnet]
  -i, --indent INTEGER          Set json indent.  [default: 4]
  -h, --help                    Show this message and exit.
```
</details>

> **Example** -> swap xinfin `htlc` command

**Contract Address** _(str)_ -> xdcdE06b10c67765c8C0b9F64E0eF423b45Eb86b8e7 **[required]**<br/>
**Network** _(str)_ -> testnet **[default: `mainnet`]**<br/>

> **Returns** _(dict)_ -> XinFin Hash Time Lock Contract (HTLC) bytecode and contract address.

```shell script
swap xinfin htlc --contract-address xdcdE06b10c67765c8C0b9F64E0eF423b45Eb86b8e7 --network testnet
```

<details open>
  <summary>Output</summary><br/>

```json5
{
    "abi": [{"anonymous": false, "inputs": [{"indexed": true, "internalType": "bytes32", "name": "locked_contract_id", "type": "bytes32"}, {"indexed": false, "internalType": "bytes32", "name": "secret_hash", "type ": "bytes32"}, {"indexed": true, "internalType": "address", "name": "recipient", "type": "address"}, {"indexed": true, "internalType": "address", "name": "sender", "type": "address"}, {"indexed": false, "intern alType": "uint256", "name": "endtime", "type": "uint256"}, {"indexed": false, "internalType": "uint256", "name": "amount", "type": "uint256"}], "name": "log_fund", "type": "event"}, {"anonymous": false, "inputs ": [{"indexed": true, "internalType": "bytes32", "name": "locked_contract_id", "type": "bytes32"}], "name": "log_refund", "type": "event"}, {"anonymous": false, "inputs": [{"indexed": true, "internalType": "byt es32", "name": "locked_contract_id", "type": "bytes32"}], "name": "log_withdraw", "type": "event"}, {"inputs": [{"internalType": "bytes32", "name": "_secret_hash", "type": "bytes32"}, {"internalType": "address payable", "name": "_recipient", "type": "address"}, {"internalType": "address payable", "name": "_sender", "type": "address"}, {"internalType": "uint256", "name": "_endtime", "type": "uint256"}], "name": "fund" , "outputs": [{"internalType": "bytes32", "name": "locked_contract_id", "type": "bytes32"}], "stateMutability": "payable", "type": "function"}, {"inputs": [{"internalType": "bytes32", "name": "_locked_contract_ id", "type": "bytes32"}], "name": "get_locked_contract", "outputs": [{"internalType": "bytes32", "name": "id", "type": "bytes32"}, {"internalType": "bytes32", "name": "secret_hash", "type": "bytes32"}, {"intern alType": "address", "name": "recipient", "type": "address"}, {"internalType": "address", "name": "sender", "type": "address"}, {"internalType": "uint256", "name": "endtime", "type": "uint256"}, {"internalType": "uint256", "name": "amount", "type": "uint256"}, {"internalType": "bool", "name": "withdrawn", "type": "bool"}, {"internalType": "bool", "name": "refunded", "type": "bool"}, {"internalType": "string", "name": "preimage", "type": "string"}], "stateMutability": "view", "type": "function"}, {"inputs": [{"internalType": "bytes32", "name": "_locked_contract_id", "type": "bytes32"}], "name": "refund", "outputs": [{"intern alType": "bool", "name": "", "type": "bool"}], "stateMutability": "nonpayable", "type": "function"}, {"inputs": [{"internalType": "bytes32", "name": "_locked_contract_id", "type": "bytes32"}, {"internalType": " string", "name": "_preimage", "type": "string"}], "name": "withdraw", "outputs": [{"internalType": "bool", "name": "", "type": "bool"}], "stateMutability": "nonpayable", "type": "function"}], 
    "bytecode": "608060405234801561001057600080fd5b50611ae9806100206000396000f3fe60806040526004361061003f5760003560e01c806306a53665146100445780637249fbb614610081578063cfd4b66e146100be578063f4fd306214610103575b600080fd5b34801561005057600080fd5b5061006b60048036038101906100669190610f29565b610133565b60405161007891906112e1565b60405180910390f35b34801561008d57600080fd5b506100a860048036038101906100a39190610e74565b610449565b6040516100b591906112e1565b60405180910390f35b3480156100ca57600080fd5b506100e560048036038101906100e09190610e74565b61073d565b6040516100fa99989796959493929190611317565b60405180910390f35b61011d60048036038101906101189190610ec6565b6108e4565b60405161012a91906112fc565b60405180910390f35b60008261013f81610ca7565b61017e576040517f08c379a000000000000000000000000000000000000000000000000000000000815260040161017590611462565b60405180910390fd5b838360028160405160200161019391906112ca565b6040516020818303038152906040526040516101af91906112b3565b602060405180830381855afa1580156101cc573d6000803e3d6000fd5b5050506040513d601f19601f820116820180604052508101906101ef9190610e9d565b6000808481526020019081526020016000206000015414610245576040517f08c379a000000000000000000000000000000000000000000000000000000000815260040161023c90611422565b60405180910390fd5b853373ffffffffffffffffffffffffffffffffffffffff1660008083815260200190815260200160002060010160009054906101000a900473ffffffffffffffffffffffffffffffffffffffff1673ffffffffffffffffffffffffffffffffffffffff16146102e9576040517f08c379a00000000000000000000000000000000000000000000000000000000081526004016102e090611502565b60405180910390fd5b6000151560008083815260200190815260200160002060050160009054906101000a900460ff16151514610352576040517f08c379a0000000000000000000000000000000000000000000000000000000008152600401610349906114e2565b60405180910390fd5b6000806000898152602001908152602001600020905086816006019080519060200190610380929190610d15565b5060018160050160006101000a81548160ff0219169083151502179055508060010160009054906101000a900473ffffffffffffffffffffffffffffffffffffffff1673ffffffffffffffffffffffffffffffffffffffff166108fc82600401549081150290604051600060405180830381858888f1935050505015801561040c573d6000803e3d6000fd5b50877f504d590eb5fc388d52f9ec13027846f2a4be1de21e120f4f6cb81577631925b660405160405180910390a260019550505050505092915050565b60008161045581610ca7565b610494576040517f08c379a000000000000000000000000000000000000000000000000000000000815260040161048b90611462565b60405180910390fd5b823373ffffffffffffffffffffffffffffffffffffffff1660008083815260200190815260200160002060020160009054906101000a900473ffffffffffffffffffffffffffffffffffffffff1673ffffffffffffffffffffffffffffffffffffffff1614610538576040517f08c379a000000000000000000000000000000000000000000000000000000000815260040161052f90611542565b60405180910390fd5b6000151560008083815260200190815260200160002060050160019054906101000a900460ff161515146105a1576040517f08c379a0000000000000000000000000000000000000000000000000000000008152600401610598906114a2565b60405180910390fd5b6000151560008083815260200190815260200160002060050160009054906101000a900460ff1615151461060a576040517f08c379a000000000000000000000000000000000000000000000000000000000815260040161060190611402565b60405180910390fd5b42600080838152602001908152602001600020600301541115610662576040517f08c379a000000000000000000000000000000000000000000000000000000000815260040161065990611442565b60405180910390fd5b6000806000868152602001908152602001600020905060018160050160016101000a81548160ff0219169083151502179055508060020160009054906101000a900473ffffffffffffffffffffffffffffffffffffffff1673ffffffffffffffffffffffffffffffffffffffff166108fc82600401549081150290604051600060405180830381858888f19350505050158015610703573d6000803e3d6000fd5b50847ff9f621227215a273c53adae3204668db470019bad0903f243eefc5f7736fc95660405160405180910390a260019350505050919050565b6000806000806000806000806060600015156107588b610ca7565b1515141561079f576000806000806000806000808760001b97508660001b9650604051806020016040528060008152509850985098509850985098509850985098506108d7565b60008060008c815260200190815260200160002090508a81600001548260010160009054906101000a900473ffffffffffffffffffffffffffffffffffffffff168360020160009054906101000a900473ffffffffffffffffffffffffffffffffffffffff16846003015485600401548660050160009054906101000a900460ff168760050160019054906101000a900460ff16886006018080546108439061169b565b80601f016020809104026020016040519081016040528092919081815260200182805461086f9061169b565b80156108bc5780601f10610891576101008083540402835291602001916108bc565b820191906000526020600020905b81548152906001019060200180831161089f57829003601f168201915b50505050509050995099509950995099509950995099509950505b9193959799909294969850565b6000803411610928576040517f08c379a000000000000000000000000000000000000000000000000000000000815260040161091f90611522565b60405180910390fd5b8142811161096b576040517f08c379a0000000000000000000000000000000000000000000000000000000008152600401610962906113e2565b60405180910390fd5b8373ffffffffffffffffffffffffffffffffffffffff163373ffffffffffffffffffffffffffffffffffffffff16146109d9576040517f08c379a00000000000000000000000000000000000000000000000000000000081526004016109d0906114c2565b60405180910390fd5b600286863386346040516020016109f4959493929190611254565b604051602081830303815290604052604051610a1091906112b3565b602060405180830381855afa158015610a2d573d6000803e3d6000fd5b5050506040513d601f19601f82011682018060405250810190610a509190610e9d565b9150610a5b82610ca7565b15610a9b576040517f08c379a0000000000000000000000000000000000000000000000000000000008152600401610a9290611482565b60405180910390fd5b6040518061010001604052808781526020018673ffffffffffffffffffffffffffffffffffffffff1681526020018573ffffffffffffffffffffffffffffffffffffffff168152602001848152602001348152602001600015158152602001600015158152602001604051806020016040528060008152508152506000808481526020019081526020016000206000820151816000015560208201518160010160006101000a81548173ffffffffffffffffffffffffffffffffffffffff021916908373ffffffffffffffffffffffffffffffffffffffff16021790555060408201518160020160006101000a81548173ffffffffffffffffffffffffffffffffffffffff021916908373ffffffffffffffffffffffffffffffffffffffff160217905550606082015181600301556080820151816004015560a08201518160050160006101000a81548160ff02191690831515021790555060c08201518160050160016101000a81548160ff02191690831515021790555060e0820151816006019080519060200190610c30929190610d15565b509050503373ffffffffffffffffffffffffffffffffffffffff168573ffffffffffffffffffffffffffffffffffffffff16837f4b32cdea5308293292c6bd3fcb8f93752a664ea704010bfcdc88effd651f2f7a898734604051610c96939291906113ab565b60405180910390a450949350505050565b60008073ffffffffffffffffffffffffffffffffffffffff1660008084815260200190815260200160002060020160009054906101000a900473ffffffffffffffffffffffffffffffffffffffff1673ffffffffffffffffffffffffffffffffffffffff1614159050919050565b828054610d219061169b565b90600052602060002090601f016020900481019282610d435760008555610d8a565b82601f10610d5c57805160ff1916838001178555610d8a565b82800160010185558215610d8a579182015b82811115610d89578251825591602001919060010190610d6e565b5b509050610d979190610d9b565b5090565b5b80821115610db4576000816000905550600101610d9c565b5090565b6000610dcb610dc684611587565b611562565b905082815260208101848484011115610de357600080fd5b610dee848285611659565b509392505050565b600081359050610e0581611a6e565b92915050565b600081359050610e1a81611a85565b92915050565b600081519050610e2f81611a85565b92915050565b600082601f830112610e4657600080fd5b8135610e56848260208601610db8565b91505092915050565b600081359050610e6e81611a9c565b92915050565b600060208284031215610e8657600080fd5b6000610e9484828501610e0b565b91505092915050565b600060208284031215610eaf57600080fd5b6000610ebd84828501610e20565b91505092915050565b60008060008060808587031215610edc57600080fd5b6000610eea87828801610e0b565b9450506020610efb87828801610df6565b9350506040610f0c87828801610df6565b9250506060610f1d87828801610e5f565b91505092959194509250565b60008060408385031215610f3c57600080fd5b6000610f4a85828601610e0b565b925050602083013567ffffffffffffffff811115610f6757600080fd5b610f7385828601610e35565b9150509250929050565b610f8e610f8982611607565b611710565b82525050565b610f9d816115f5565b82525050565b610fb4610faf826115f5565b6116fe565b82525050565b610fc381611619565b82525050565b610fd281611625565b82525050565b610fe9610fe482611625565b611722565b82525050565b6000610ffa826115b8565b61100481856115ce565b9350611014818560208601611668565b80840191505092915050565b600061102b826115c3565b61103581856115d9565b9350611045818560208601611668565b61104e816117a6565b840191505092915050565b6000611064826115c3565b61106e81856115ea565b935061107e818560208601611668565b80840191505092915050565b60006110976022836115d9565b91506110a2826117c4565b604082019050919050565b60006110ba601d836115d9565b91506110c582611813565b602082019050919050565b60006110dd601f836115d9565b91506110e88261183c565b602082019050919050565b60006111006022836115d9565b915061110b82611865565b604082019050919050565b60006111236021836115d9565b915061112e826118b4565b604082019050919050565b60006111466023836115d9565b915061115182611903565b604082019050919050565b6000611169601c836115d9565b915061117482611952565b602082019050919050565b600061118c602b836115d9565b91506111978261197b565b604082019050919050565b60006111af601f836115d9565b91506111ba826119ca565b602082019050919050565b60006111d2601b836115d9565b91506111dd826119f3565b602082019050919050565b60006111f56015836115d9565b915061120082611a1c565b602082019050919050565b60006112186016836115d9565b915061122382611a45565b602082019050919050565b6112378161164f565b82525050565b61124e6112498261164f565b61173e565b82525050565b60006112608288610fd8565b6020820191506112708287610f7d565b6014820191506112808286610fa3565b601482019150611290828561123d565b6020820191506112a0828461123d565b6020820191508190509695505050505050565b60006112bf8284610fef565b915081905092915050565b60006112d68284611059565b915081905092915050565b60006020820190506112f66000830184610fba565b92915050565b60006020820190506113116000830184610fc9565b92915050565b60006101208201905061132d600083018c610fc9565b61133a602083018b610fc9565b611347604083018a610f94565b6113546060830189610f94565b611361608083018861122e565b61136e60a083018761122e565b61137b60c0830186610fba565b61138860e0830185610fba565b81810361010083015261139b8184611020565b90509a9950505050505050505050565b60006060820190506113c06000830186610fc9565b6113cd602083018561122e565b6113da604083018461122e565b949350505050565b60006020820190508181016252966578301526113fb8161108a565b9050919050565b600060208201905081810162529665783015261141b816110ad565b9050919050565b600060208201905081810162529665783015261143b816110d0565b9050919050565b600060208201905081810162529665783015261145b816110f3565b9050919050565b600060208201905081810162529665783015261147b81611116565b9050919050565b600060208201905081810162529665783015261149b81611139565b9050919050565b60006020820190508181016252966578301526114bb8161115c565b9050919050565b60006020820190508181016252966578301526114db8161117f565b9050919050565b60006020820190508181016252966578301526114fb816111a2565b9050919050565b600060208201905081810162529665783015261151b816111c5565b9050919050565b600060208201905081810162529665783015261153b816111e8565b9050919050565b600060208201905081810162529665783015261155b8161120b565b9050919050565b600061156c61157d565b905061157882826116cd565b919050565b6000604051905090565b600067ffffffffffffffff8211156115a2576115a1611777565b5b6115ab826117a6565b9050602081019050919050565b600081519050919050565b600081519050919050565b600081905092915050565b600082825260208201905092915050565b600081905092915050565b60006116008261162f565b9050919050565b60006116128261162f565b9050919050565b60008115159050919050565b6000819050919050565b600073ffffffffffffffffffffffffffffffffffffffff82169050919050565b6000819050919050565b82818337600083830152505050565b60005b8381101561168657808201518184015260208101905061166b565b83811115611695576000848401525b50505050565b600060028204905060018216806116b357607f821691505b602082108114156116c7576116c6611748565b5b50919050565b6116d6826117a6565b810181811067ffffffffffffffff821117156116f5576116f4611777565b5b80604052505050565b60006117098261172c565b9050919050565b600061171b8261172c565b9050919050565b6000819050919050565b6000611737826117b7565b9050919050565b6000819050919050565b7f4e487b7100000000000000000000000000000000000000000000000000000000600052602260045260246000fd5b7f4e487b7100000000000000000000000000000000000000000000000000000000600052604160045260246000fd5b6000601f19601f8301169050919050565b60008160601b9050919050565b7f656e6474696d652074696d65206d75737420626520696e20746865206675747560008201527f7265000000000000000000000000000000000000000000000000000000000000602082015250565b7f726566756e6461626c653a20616c72656164792077697468647261776e000000600082015250565b7f7365637265745f68617368206861736820646f6573206e6f74206d6174636800600082015250565b7f726566756e6461626c653a20656e6474696d65206e6f742079657420706173716252966578201527f6564000000000000000000000000000000000000000000000000000000000000602082015250565b7f6c6f636b65645f636f6e74726163745f696420646f6573206e6f7420657869716252966578201527f7400000000000000000000000000000000000000000000000000000000000000602082015250565b7f74686973206c6f636b656420636f6e747261637420616c72656164792065786960008201527f7374730000000000000000000000000000000000000000000000000000000000602082015250565b7f726566756e6461626c653a20616c726561647920726566756e64656400000000600082015250565b7f6d73672e73656e646572206d7573742062652073616d6520776974682073656e60008201527f6465722061646472657373000000000000000000000000000000000000000000602082015250565b7f776974686472617761626c653a20616c72656164792077697468647261776e00600082015250565b7f776974686472617761626c653a206e6f7420726563697069656e740000000000600082015250565b7f6d73672e76616c7565206d757374206265203e20300000000000000000000000600082015250565b7f726566756e6461626c653a206e6f742073656e64657200000000000000000000600082015250565b611a7781611607565b8114611a8257600080fd5b50565b611a8e81611625565b8114611a9957600080fd5b50565b611aa58161164f565b8114611ab057600080fd5b5056fea2646970667358221220fa3ddfb3e71a48933f01fae9a76a0223900287fde7ab13cec7b9bc8cab5e7ff264736f6c63430008030033", 
    "contract_address": "xdcdE06b10c67765c8C0b9F64E0eF423b45Eb86b8e7"
}
```
</details>

## Fund Command

> $ swap xinfin `fund` command

```shell script
swap xinfin fund --help
```

<details>
  <summary>Output</summary><br/>

```shell script
Usage: swap xinfin fund [OPTIONS]

Options:
  -sh, --secret-hash TEXT        Set secret 256 hash.  [required]
  -ra, --recipient-address TEXT  Set XinFin recipient address.  [required]
  -sa, --sender-address TEXT     Set XinFin sender address.  [required]
  -e, --endtime INTEGER          Set Expiration block timestamp.  [required]
  -am, --amount FLOAT            Set XinFin fund amount.  [required]
  -u, --unit TEXT                Set XinFin fund amount unit.  [default: Wei]
  -ca, --contract-address TEXT   Set XinFin HTLC contact address.  [default:
                                 None]

  -n, --network TEXT             Set XinFin network.  [default: mainnet]
  -h, --help                     Show this message and exit.
```
</details>

> **Example** -> swap xinfin `fund` command

**Secret Hash** _(str)_ -> 3a26da82ead15a80533a02696656b14b5dbfd84eb14790f2e1be5e9e45820eeb **[required]**<br/>
**Recipient Address** _(str)_ -> xdcf8D43806260CFc6cC79fB408BA1897054667F81C **[required]**<br/>
**Sender Address** _(str)_ -> xdc2224caA2235DF8Da3D2016d2AB1137D2d548A232 **[required]**<br/>
**Endtime** _(int)_ -> 1625296657 **[required]**<br/>
**Amount** _(int, float)_ -> 1 **[required]**<br/>
**Unit** _(str)_ -> XDC **[default: `Wei`]**<br/>
**Contract Address** _(str)_ -> xdcdE06b10c67765c8C0b9F64E0eF423b45Eb86b8e7 **[required]**<br/>
**Network** _(str)_ -> testnet **[default: `mainnet`]**<br/>

> **Returns** _(str)_ -> XinFin unsigned fund transaction raw.

```shell script
swap xinfin fund --secret-hash 3a26da82ead15a80533a02696656b14b5dbfd84eb14790f2e1be5e9e45820eeb --recipient-address xdcf8D43806260CFc6cC79fB408BA1897054667F81C --sender-address xdc2224caA2235DF8Da3D2016d2AB1137D2d548A232 --endtime 1625296657 --amount 1 --unit XDC --contract-address xdcdE06b10c67765c8C0b9F64E0eF423b45Eb86b8e7 --network testnet
```

<details open>
  <summary>Output</summary><br/>

```shell script
eyJmZWUiOiAxMzg0NDgsICJ0eXBlIjogInhpbmZpbl9mdW5kX3Vuc2lnbmVkIiwgInRyYW5zYWN0aW9uIjogeyJjaGFpbklkIjogMTMzNywgImZyb20iOiAiMHgyMjI0Y2FBMjIzNURGOERhM0QyMDE2ZDJBQjExMzdEMmQ1NDhBMjMyIiwgInZhbHVlIjogMTAwMDAwMDAwMDAwMDAwMDAwMCwgIm5vbmNlIjogMiwgImdhcyI6IDEzODQ0OCwgImdhc1ByaWNlIjogMjAwMDAwMDAwMDAsICJ0byI6ICIweGRFMDZiMTBjNjc3NjVjOEMwYjlGNjRFMGVGNDIzYjQ1RWI4NmI4ZTciLCAiZGF0YSI6ICIweGY0ZmQzMDYyM2EyNmRhODJlYWQxNWE4MDUzM2EwMjY5NjY1NmIxNGI1ZGJmZDg0ZWIxNDc5MGYyZTFiZTVlOWU0NTgyMGVlYjAwMDAwMDAwMDAwMDAwMDAwMDAwMDAwMGY4ZDQzODA2MjYwY2ZjNmNjNzlmYjQwOGJhMTg5NzA1NDY2N2Y4MWMwMDAwMDAwMDAwMDAwMDAwMDAwMDAwMDAyMjI0Y2FhMjIzNWRmOGRhM2QyMDE2ZDJhYjExMzdkMmQ1NDhhMjMyMDAwMDAwMDAwMDAwMDAwMDAwMDAwMDAwMDAwMDAwMDAwMDAwMDAwMDAwMDAwMDAwMDAwMDAwMDBjMWMwMzk4MSJ9LCAic2lnbmF0dXJlIjogbnVsbCwgIm5ldHdvcmsiOiAidGVzdG5ldCJ9
```
</details>

## Withdraw Command

> $ swap xinfin `withdraw` command

```shell script
swap xinfin withdraw --help
```

<details>
  <summary>Output</summary><br/>

```shell script
Usage: swap xinfin withdraw [OPTIONS]

Options:
  -th, --transaction-hash TEXT  Set XinFin funded transaction hash/id.
                                [required]

  -a, --address TEXT            Set XinFin recipient address.  [required]
  -sk, --secret-key TEXT        Set secret password/passphrase.  [required]
  -ca, --contract-address TEXT  Set XinFin HTLC contact address.  [default:
                                None]

  -n, --network TEXT            Set XinFin network.  [default: mainnet]
  -h, --help                    Show this message and exit.
```
</details>

> **Example** -> swap xinfin `withdraw` command

**Transaction Hash** _(str)_ -> 0x0d4c93546aa3e5e476455931a63f1a97a2624e3b516e3fd8e3a582cb20aaeef9 **[required]**<br/>
**Recipient Address** _(str)_ -> xdcf8D43806260CFc6cC79fB408BA1897054667F81C **[required]**<br/>
**Secret Key** _(str)_ -> Hello Meheret! **[required]**<br/>
**Contract Address** _(str)_ -> xdcdE06b10c67765c8C0b9F64E0eF423b45Eb86b8e7 **[required]**<br/>
**Network** _(str)_ -> testnet **[default: `mainnet`]**<br/>

> **Returns** _(str)_ -> XinFin unsigned withdraw transaction raw.

```shell script
swap xinfin withdraw --transaction-hash 0x0d4c93546aa3e5e476455931a63f1a97a2624e3b516e3fd8e3a582cb20aaeef9 --address xdcf8D43806260CFc6cC79fB408BA1897054667F81C --secret-key "Hello Meheret!" --contract-address xdcdE06b10c67765c8C0b9F64E0eF423b45Eb86b8e7 --network testnet
```

<details open>
  <summary>Output</summary><br/>

```shell script
eyJmZWUiOiA4MjY4OSwgInR5cGUiOiAieGluZmluX3dpdGhkcmF3X3Vuc2lnbmVkIiwgInRyYW5zYWN0aW9uIjogeyJjaGFpbklkIjogMTMzNywgImZyb20iOiAiMHhmOEQ0MzgwNjI2MENGYzZjQzc5ZkI0MDhCQTE4OTcwNTQ2NjdGODFDIiwgInZhbHVlIjogMCwgIm5vbmNlIjogMCwgImdhcyI6IDgyNjg5LCAiZ2FzUHJpY2UiOiAyMDAwMDAwMDAwMCwgInRvIjogIjB4ZEUwNmIxMGM2Nzc2NWM4QzBiOUY2NEUwZUY0MjNiNDVFYjg2YjhlNyIsICJkYXRhIjogIjB4MDZhNTM2NjUxOTA5NTc1YzQzNmEwZWFiZTZjYWE3MmQ0ZmViMmM0YWVjZWVmNTg2ZmU5NGNhODJmMzZjZTljMjBlZmRhNGI0MDAwMDAwMDAwMDAwMDAwMDAwMDAwMDAwMDAwMDAwMDAwMDAwMDAwMDAwMDAwMDAwMDAwMDAwMDAwMDAwMDA0MDAwMDAwMDAwMDAwMDAwMDAwMDAwMDAwMDAwMDAwMDAwMDAwMDAwMDAwMDAwMDAwMDAwMDAwMDAwMDAwMDAwMGU0ODY1NmM2YzZmMjA0ZDY1Njg2NTcyNjU3NDIxMDAwMDAwMDAwMDAwMDAwMDAwMDAwMDAwMDAwMDAwMDAwMDAwIn0sICJzaWduYXR1cmUiOiBudWxsLCAibmV0d29yayI6ICJ0ZXN0bmV0In0=
```
</details>

## Refund Command

> $ swap xinfin `refund` command

```shell script
swap xinfin refund --help
```

<details>
  <summary>Output</summary><br/>

```shell script
Usage: swap xinfin refund [OPTIONS]

Options:
  -th, --transaction-hash TEXT  Set XinFin funded transaction hash/id.
                                [required]

  -a, --address TEXT            Set XinFin sender address.  [required]
  -ca, --contract-address TEXT  Set XinFin HTLC contact address.  [default:
                                None]

  -n, --network TEXT            Set XinFin network.  [default: mainnet]
  -h, --help                    Show this message and exit.
```
</details>

> **Example** -> swap xinfin `refund` command

**Transaction Hash** _(str)_ -> 0x0d4c93546aa3e5e476455931a63f1a97a2624e3b516e3fd8e3a582cb20aaeef9 **[required]**<br/>
**Sender Address** _(str)_ -> xdc2224caA2235DF8Da3D2016d2AB1137D2d548A232 **[required]**<br/>
**Contract Address** _(str)_ -> xdcdE06b10c67765c8C0b9F64E0eF423b45Eb86b8e7 **[required]**<br/>
**Network** _(str)_ -> testnet **[default: `mainnet`]**<br/>

> **Returns** _(str)_ -> XinFin unsigned refund transaction raw.

```shell script
swap xinfin refund --transaction-hash 0x0d4c93546aa3e5e476455931a63f1a97a2624e3b516e3fd8e3a582cb20aaeef9 --address xdc2224caA2235DF8Da3D2016d2AB1137D2d548A232 --contract-address xdcdE06b10c67765c8C0b9F64E0eF423b45Eb86b8e7 --network testnet
```

<details open>
  <summary>Output</summary><br/>

```shell script
eyJmZWUiOiA1OTIzMiwgInR5cGUiOiAieGluZmluX3JlZnVuZF91bnNpZ25lZCIsICJ0cmFuc2FjdGlvbiI6IHsiY2hhaW5JZCI6IDEzMzcsICJmcm9tIjogIjB4MjIyNGNhQTIyMzVERjhEYTNEMjAxNmQyQUIxMTM3RDJkNTQ4QTIzMiIsICJ2YWx1ZSI6IDAsICJub25jZSI6IDIsICJnYXMiOiA1OTIzMiwgImdhc1ByaWNlIjogMjAwMDAwMDAwMDAsICJ0byI6ICIweGRFMDZiMTBjNjc3NjVjOEMwYjlGNjRFMGVGNDIzYjQ1RWI4NmI4ZTciLCAiZGF0YSI6ICIweDcyNDlmYmI2MTkwOTU3NWM0MzZhMGVhYmU2Y2FhNzJkNGZlYjJjNGFlY2VlZjU4NmZlOTRjYTgyZjM2Y2U5YzIwZWZkYTRiNCJ9LCAic2lnbmF0dXJlIjogbnVsbCwgIm5ldHdvcmsiOiAidGVzdG5ldCJ9
```
</details>

## Decode Command

> $ swap xinfin `decode` command

```shell script
swap xinfin decode --help
```

<details>
  <summary>Output</summary><br/>

```shell script
Usage: swap xinfin decode [OPTIONS]

Options:
  -tr, --transaction-raw TEXT  Set XinFin transaction raw.  [required]
  -i, --indent INTEGER         Set json indent.  [default: 4]
  -h, --help                   Show this message and exit.
```
</details>

> **Example** -> swap xinfin `decode` command

**Transaction Raw** _(str)_ -> eyJmZWUiOiAxMzg0NDgsICJ0eXBlIjogInhpbmZpbl9mdW5kX3NpZ25lZCIs... **[required]**<br/>

> **Returns** _(str)_ -> XinFin transaction json.

```shell script
swap xinfin decode --transaction-raw eyJmZWUiOiAxMzg0NDgsICJ0eXBlIjogInhpbmZpbl9mdW5kX3NpZ25lZCIsICJ0cmFuc2FjdGlvbiI6IHsiY2hhaW5JZCI6IDEzMzcsICJmcm9tIjogIjB4MjIyNGNhQTIyMzVERjhEYTNEMjAxNmQyQUIxMTM3RDJkNTQ4QTIzMiIsICJ2YWx1ZSI6IDEwMDAwMDAwMDAwMDAwMDAwMDAsICJub25jZSI6IDIsICJnYXMiOiAxMzg0NDgsICJnYXNQcmljZSI6IDIwMDAwMDAwMDAwLCAidG8iOiAiMHhkRTA2YjEwYzY3NzY1YzhDMGI5RjY0RTBlRjQyM2I0NUViODZiOGU3IiwgImRhdGEiOiAiMHhmNGZkMzA2MjNhMjZkYTgyZWFkMTVhODA1MzNhMDI2OTY2NTZiMTRiNWRiZmQ4NGViMTQ3OTBmMmUxYmU1ZTllNDU4MjBlZWIwMDAwMDAwMDAwMDAwMDAwMDAwMDAwMDBmOGQ0MzgwNjI2MGNmYzZjYzc5ZmI0MDhiYTE4OTcwNTQ2NjdmODFjMDAwMDAwMDAwMDAwMDAwMDAwMDAwMDAwMjIyNGNhYTIyMzVkZjhkYTNkMjAxNmQyYWIxMTM3ZDJkNTQ4YTIzMjAwMDAwMDAwMDAwMDAwMDAwMDAwMDAwMDAwMDAwMDAwMDAwMDAwMDAwMDAwMDAwMDAwMDAwMDAwNjBlMDBmMTEifSwgInNpZ25hdHVyZSI6IHsiaGFzaCI6ICIweDg0ZTQ4ZWJhZTE4NjY4YjM4ZGUyYzE5ZDEzMzI2NGFkYjI3ZDk1ZjY5ODA0ODRkYmE4YTExNDQ1MDZjODU0MTgiLCAicmF3VHJhbnNhY3Rpb24iOiAiMHhmOGY0MDI4NTA0YTgxN2M4MDA4MzAyMWNkMDk0ZGUwNmIxMGM2Nzc2NWM4YzBiOWY2NGUwZWY0MjNiNDVlYjg2YjhlNzg4MGRlMGI2YjNhNzY0MDAwMGI4ODRmNGZkMzA2MjNhMjZkYTgyZWFkMTVhODA1MzNhMDI2OTY2NTZiMTRiNWRiZmQ4NGViMTQ3OTBmMmUxYmU1ZTllNDU4MjBlZWIwMDAwMDAwMDAwMDAwMDAwMDAwMDAwMDBmOGQ0MzgwNjI2MGNmYzZjYzc5ZmI0MDhiYTE4OTcwNTQ2NjdmODFjMDAwMDAwMDAwMDAwMDAwMDAwMDAwMDAwMjIyNGNhYTIyMzVkZjhkYTNkMjAxNmQyYWIxMTM3ZDJkNTQ4YTIzMjAwMDAwMDAwMDAwMDAwMDAwMDAwMDAwMDAwMDAwMDAwMDAwMDAwMDAwMDAwMDAwMDAwMDAwMDAwNjBlMDBmMTE4MjBhOTZhMDU0ZDFkYjQxNmNiZjEwN2VkMjY4YThlNThjNzcxOGI0ODlmOWNiMjhiOTUxNjA3YjhlZDNiZGEyZTJmZjVkYmRhMDMwZTM3ZjBlNGQzYzIyMmQ2ZTNmNzIyMTMxNWU1YjMyMTk3MTQyYjE0ZDllYzYyZWFhZjg4NzU1MzY0Mjg5M2EiLCAiciI6IDM4MzY1MDYzNTYzODMxODY2Mjk2NDAyMTczNDgzMDQ4MjYzNTA4NjU0NjA1MzU1MDQwNzAzNTkyNzY1NTYzNzQ1NzcxMDY4NTQ2NDkzLCAicyI6IDIyMTEyOTY3OTIzMDYwNTU5NTc0MzUwMDAyOTc5NjYzNjY3NTgxOTU2OTIzNzMxMDQyODc3MzA5ODg1NjAyMDA4MDk1OTIzNTM4MjM0LCAidiI6IDI3MTB9LCAibmV0d29yayI6ICJ0ZXN0bmV0In0
```

<details open>
  <summary>Output</summary><br/>

```json5
{
    "fee": 138448,
    "transaction": {
        "chainId": 1337,
        "from": "0x2224caA2235DF8Da3D2016d2AB1137D2d548A232",
        "value": 1000000000000000000,
        "nonce": 2,
        "gas": 138448,
        "gasPrice": 20000000000,
        "to": "0xdE06b10c67765c8C0b9F64E0eF423b45Eb86b8e7",
        "data": "0xf4fd30623a26da82ead15a80533a02696656b14b5dbfd84eb14790f2e1be5e9e45820eeb000000000000000000000000f8d43806260cfc6cc79fb408ba1897054667f81c0000000000000000000000002224caa2235df8da3d2016d2ab1137d2d548a2320000000000000000000000000000000000000000000000000000000060e00f11"
    },
    "signatures": {
        "hash": "0x84e48ebae18668b38de2c19d133264adb27d95f6980484dba8a1144506c85418",
        "rawTransaction": "0xf8f4028504a817c80083021cd094de06b10c67765c8c0b9f64e0ef423b45eb86b8e7880de0b6b3a7640000b884f4fd30623a26da82ead15a80533a02696656b14b5dbfd84eb14790f2e1be5e9e45820eeb000000000000000000000000f8d43806260cfc6cc79fb408ba1897054667f81c0000000000000000000000002224caa2235df8da3d2016d2ab1137d2d548a2320000000000000000000000000000000000000000000000000000000060e00f11820a96a054d1db416cbf107ed268a8e58c7718b489f9cb28b951607b8ed3bda2e2ff5dbda030e37f0e4d3c222d6e3f7221315e5b32197142b14d9ec62eaaf887553642893a",
        "r": 38365063563831866296402173483048263508654605355040703592765563745771068546493,
        "s": 22112967923060559574350002979663667581956923731042877309885602008095923538234,
        "v": 2710
    },
    "network": "testnet",
    "type": "xinfin_fund_signed"
}
```
</details>

## Sign Command

> $ swap xinfin `sign` command

```shell script
swap xinfin sign --help
```

<details>
  <summary>Output</summary><br/>

```shell script
Usage: swap xinfin sign [OPTIONS]

Options:
  -xpk, --xprivate-key TEXT    Set XinFin root xprivate key.  [required]
  -tr, --transaction-raw TEXT  Set XinFin unsigned transaction raw.
                               [required]

  -ac, --account INTEGER       Set XinFin derivation from account.  [default:
                               0]

  -ch, --change BOOLEAN        Set XinFin derivation from change.  [default:
                               False]

  -ad, --address INTEGER       Set XinFin derivation from address.  [default:
                               0]

  -p, --path TEXT              Set XinFin derivation from path.  [default:
                               None]

  -h, --help                   Show this message and exit.
```
</details>

> **Example** -> swap xinfin `sign` command

**Root XPrivate Key** _(str)_ -> xprv9s21ZrQH143K3Y3pdbkbjreZQ9RVmqTLhRgf86uZyCJk2ou36YdUJt5frjwihGWmV1fQEDioiGZXWXUbHLy3kQf5xmhvhp8dZ2tfn6tgGUj **[required]**<br/>
**Unsigned Transaction Raw** _(str)_ -> eyJmZWUiOiAxMzg0NDgsICJ0eXBlIjogInhpbmZpbl9mdW5kX3Vuc2lnbmV... **[required]**<br/>
**Path** _(str)_ -> m/44'/550'/0'/0/0 **[default: `m/44'/550'/0'/0/0`]**<br/>

> **Returns** _(str)_ -> XinFin signed transaction raw.

```shell script
swap xinfin sign --xprivate-key xprv9s21ZrQH143K3Y3pdbkbjreZQ9RVmqTLhRgf86uZyCJk2ou36YdUJt5frjwihGWmV1fQEDioiGZXWXUbHLy3kQf5xmhvhp8dZ2tfn6tgGUj --path "m/44'/550'/0'/0/0" --transaction-raw eyJmZWUiOiAxMzg0NDgsICJ0eXBlIjogInhpbmZpbl9mdW5kX3Vuc2lnbmVkIiwgInRyYW5zYWN0aW9uIjogeyJjaGFpbklkIjogMTMzNywgImZyb20iOiAiMHgyMjI0Y2FBMjIzNURGOERhM0QyMDE2ZDJBQjExMzdEMmQ1NDhBMjMyIiwgInZhbHVlIjogMTAwMDAwMDAwMDAwMDAwMDAwMCwgIm5vbmNlIjogMiwgImdhcyI6IDEzODQ0OCwgImdhc1ByaWNlIjogMjAwMDAwMDAwMDAsICJ0byI6ICIweGRFMDZiMTBjNjc3NjVjOEMwYjlGNjRFMGVGNDIzYjQ1RWI4NmI4ZTciLCAiZGF0YSI6ICIweGY0ZmQzMDYyM2EyNmRhODJlYWQxNWE4MDUzM2EwMjY5NjY1NmIxNGI1ZGJmZDg0ZWIxNDc5MGYyZTFiZTVlOWU0NTgyMGVlYjAwMDAwMDAwMDAwMDAwMDAwMDAwMDAwMGY4ZDQzODA2MjYwY2ZjNmNjNzlmYjQwOGJhMTg5NzA1NDY2N2Y4MWMwMDAwMDAwMDAwMDAwMDAwMDAwMDAwMDAyMjI0Y2FhMjIzNWRmOGRhM2QyMDE2ZDJhYjExMzdkMmQ1NDhhMjMyMDAwMDAwMDAwMDAwMDAwMDAwMDAwMDAwMDAwMDAwMDAwMDAwMDAwMDAwMDAwMDAwMDAwMDAwMDA2MGUwMGYxMSJ9LCAic2lnbmF0dXJlIjogbnVsbCwgIm5ldHdvcmsiOiAidGVzdG5ldCJ9
```

<details open>
  <summary>Output</summary><br/>

```shell script
eyJmZWUiOiAxMzg0NDgsICJ0eXBlIjogInhpbmZpbl9mdW5kX3NpZ25lZCIsICJ0cmFuc2FjdGlvbiI6IHsiY2hhaW5JZCI6IDEzMzcsICJmcm9tIjogIjB4MjIyNGNhQTIyMzVERjhEYTNEMjAxNmQyQUIxMTM3RDJkNTQ4QTIzMiIsICJ2YWx1ZSI6IDEwMDAwMDAwMDAwMDAwMDAwMDAsICJub25jZSI6IDIsICJnYXMiOiAxMzg0NDgsICJnYXNQcmljZSI6IDIwMDAwMDAwMDAwLCAidG8iOiAiMHhkRTA2YjEwYzY3NzY1YzhDMGI5RjY0RTBlRjQyM2I0NUViODZiOGU3IiwgImRhdGEiOiAiMHhmNGZkMzA2MjNhMjZkYTgyZWFkMTVhODA1MzNhMDI2OTY2NTZiMTRiNWRiZmQ4NGViMTQ3OTBmMmUxYmU1ZTllNDU4MjBlZWIwMDAwMDAwMDAwMDAwMDAwMDAwMDAwMDBmOGQ0MzgwNjI2MGNmYzZjYzc5ZmI0MDhiYTE4OTcwNTQ2NjdmODFjMDAwMDAwMDAwMDAwMDAwMDAwMDAwMDAwMjIyNGNhYTIyMzVkZjhkYTNkMjAxNmQyYWIxMTM3ZDJkNTQ4YTIzMjAwMDAwMDAwMDAwMDAwMDAwMDAwMDAwMDAwMDAwMDAwMDAwMDAwMDAwMDAwMDAwMDAwMDAwMDAwNjBlMDBmMTEifSwgInNpZ25hdHVyZSI6IHsiaGFzaCI6ICIweDg0ZTQ4ZWJhZTE4NjY4YjM4ZGUyYzE5ZDEzMzI2NGFkYjI3ZDk1ZjY5ODA0ODRkYmE4YTExNDQ1MDZjODU0MTgiLCAicmF3VHJhbnNhY3Rpb24iOiAiMHhmOGY0MDI4NTA0YTgxN2M4MDA4MzAyMWNkMDk0ZGUwNmIxMGM2Nzc2NWM4YzBiOWY2NGUwZWY0MjNiNDVlYjg2YjhlNzg4MGRlMGI2YjNhNzY0MDAwMGI4ODRmNGZkMzA2MjNhMjZkYTgyZWFkMTVhODA1MzNhMDI2OTY2NTZiMTRiNWRiZmQ4NGViMTQ3OTBmMmUxYmU1ZTllNDU4MjBlZWIwMDAwMDAwMDAwMDAwMDAwMDAwMDAwMDBmOGQ0MzgwNjI2MGNmYzZjYzc5ZmI0MDhiYTE4OTcwNTQ2NjdmODFjMDAwMDAwMDAwMDAwMDAwMDAwMDAwMDAwMjIyNGNhYTIyMzVkZjhkYTNkMjAxNmQyYWIxMTM3ZDJkNTQ4YTIzMjAwMDAwMDAwMDAwMDAwMDAwMDAwMDAwMDAwMDAwMDAwMDAwMDAwMDAwMDAwMDAwMDAwMDAwMDAwNjBlMDBmMTE4MjBhOTZhMDU0ZDFkYjQxNmNiZjEwN2VkMjY4YThlNThjNzcxOGI0ODlmOWNiMjhiOTUxNjA3YjhlZDNiZGEyZTJmZjVkYmRhMDMwZTM3ZjBlNGQzYzIyMmQ2ZTNmNzIyMTMxNWU1YjMyMTk3MTQyYjE0ZDllYzYyZWFhZjg4NzU1MzY0Mjg5M2EiLCAiciI6IDM4MzY1MDYzNTYzODMxODY2Mjk2NDAyMTczNDgzMDQ4MjYzNTA4NjU0NjA1MzU1MDQwNzAzNTkyNzY1NTYzNzQ1NzcxMDY4NTQ2NDkzLCAicyI6IDIyMTEyOTY3OTIzMDYwNTU5NTc0MzUwMDAyOTc5NjYzNjY3NTgxOTU2OTIzNzMxMDQyODc3MzA5ODg1NjAyMDA4MDk1OTIzNTM4MjM0LCAidiI6IDI3MTB9LCAibmV0d29yayI6ICJ0ZXN0bmV0In0=
```
</details>

## Submit Command

> $ swap xinfin `submit` command

```shell script
swap xinfin submit --help
```

<details>
  <summary>Output</summary><br/>

```shell script
Usage: swap xinfin submit [OPTIONS]

Options:
Options:
  -tr, --transaction-raw TEXT  Set signed XinFin transaction raw.  [required]
  -h, --help                   Show this message and exit.
```
</details>

> **Example** -> swap xinfin `submit` command

**Signed Transaction Raw** _(str)_ -> eyJmZWUiOiAxMzg0NDgsICJ0eXBlIjogInhpbmZpbl9mdW5kX3NpZ25lZCI... **[required]**<br/>

> **Returns** _(str)_ -> XinFin blockchain transaction id.

```shell script
swap xinfin submit --transaction-raw eyJmZWUiOiAxMzg0NDgsICJ0eXBlIjogInhpbmZpbl9mdW5kX3NpZ25lZCIsICJ0cmFuc2FjdGlvbiI6IHsiY2hhaW5JZCI6IDEzMzcsICJmcm9tIjogIjB4MjIyNGNhQTIyMzVERjhEYTNEMjAxNmQyQUIxMTM3RDJkNTQ4QTIzMiIsICJ2YWx1ZSI6IDEwMDAwMDAwMDAwMDAwMDAwMDAsICJub25jZSI6IDIsICJnYXMiOiAxMzg0NDgsICJnYXNQcmljZSI6IDIwMDAwMDAwMDAwLCAidG8iOiAiMHhkRTA2YjEwYzY3NzY1YzhDMGI5RjY0RTBlRjQyM2I0NUViODZiOGU3IiwgImRhdGEiOiAiMHhmNGZkMzA2MjNhMjZkYTgyZWFkMTVhODA1MzNhMDI2OTY2NTZiMTRiNWRiZmQ4NGViMTQ3OTBmMmUxYmU1ZTllNDU4MjBlZWIwMDAwMDAwMDAwMDAwMDAwMDAwMDAwMDBmOGQ0MzgwNjI2MGNmYzZjYzc5ZmI0MDhiYTE4OTcwNTQ2NjdmODFjMDAwMDAwMDAwMDAwMDAwMDAwMDAwMDAwMjIyNGNhYTIyMzVkZjhkYTNkMjAxNmQyYWIxMTM3ZDJkNTQ4YTIzMjAwMDAwMDAwMDAwMDAwMDAwMDAwMDAwMDAwMDAwMDAwMDAwMDAwMDAwMDAwMDAwMDAwMDAwMDAwNjBlMDBmMTEifSwgInNpZ25hdHVyZSI6IHsiaGFzaCI6ICIweDg0ZTQ4ZWJhZTE4NjY4YjM4ZGUyYzE5ZDEzMzI2NGFkYjI3ZDk1ZjY5ODA0ODRkYmE4YTExNDQ1MDZjODU0MTgiLCAicmF3VHJhbnNhY3Rpb24iOiAiMHhmOGY0MDI4NTA0YTgxN2M4MDA4MzAyMWNkMDk0ZGUwNmIxMGM2Nzc2NWM4YzBiOWY2NGUwZWY0MjNiNDVlYjg2YjhlNzg4MGRlMGI2YjNhNzY0MDAwMGI4ODRmNGZkMzA2MjNhMjZkYTgyZWFkMTVhODA1MzNhMDI2OTY2NTZiMTRiNWRiZmQ4NGViMTQ3OTBmMmUxYmU1ZTllNDU4MjBlZWIwMDAwMDAwMDAwMDAwMDAwMDAwMDAwMDBmOGQ0MzgwNjI2MGNmYzZjYzc5ZmI0MDhiYTE4OTcwNTQ2NjdmODFjMDAwMDAwMDAwMDAwMDAwMDAwMDAwMDAwMjIyNGNhYTIyMzVkZjhkYTNkMjAxNmQyYWIxMTM3ZDJkNTQ4YTIzMjAwMDAwMDAwMDAwMDAwMDAwMDAwMDAwMDAwMDAwMDAwMDAwMDAwMDAwMDAwMDAwMDAwMDAwMDAwNjBlMDBmMTE4MjBhOTZhMDU0ZDFkYjQxNmNiZjEwN2VkMjY4YThlNThjNzcxOGI0ODlmOWNiMjhiOTUxNjA3YjhlZDNiZGEyZTJmZjVkYmRhMDMwZTM3ZjBlNGQzYzIyMmQ2ZTNmNzIyMTMxNWU1YjMyMTk3MTQyYjE0ZDllYzYyZWFhZjg4NzU1MzY0Mjg5M2EiLCAiciI6IDM4MzY1MDYzNTYzODMxODY2Mjk2NDAyMTczNDgzMDQ4MjYzNTA4NjU0NjA1MzU1MDQwNzAzNTkyNzY1NTYzNzQ1NzcxMDY4NTQ2NDkzLCAicyI6IDIyMTEyOTY3OTIzMDYwNTU5NTc0MzUwMDAyOTc5NjYzNjY3NTgxOTU2OTIzNzMxMDQyODc3MzA5ODg1NjAyMDA4MDk1OTIzNTM4MjM0LCAidiI6IDI3MTB9LCAibmV0d29yayI6ICJ0ZXN0bmV0In0
```

<details open>
  <summary>Output</summary><br/>

```shell script
0x84e48ebae18668b38de2c19d133264adb27d95f6980484dba8a1144506c85418
```
</details>
